{"abi":[{"type":"constructor","inputs":[{"name":"_usde","type":"address","internalType":"address"},{"name":"_targetAmount","type":"uint256","internalType":"uint256"},{"name":"_fundingDuration","type":"uint256","internalType":"uint256"},{"name":"_distributionDuration","type":"uint256","internalType":"uint256"},{"name":"_repaymentDuration","type":"uint256","internalType":"uint256"},{"name":"_lendingRate","type":"uint256","internalType":"uint256"},{"name":"_borrowingRate","type":"uint256","internalType":"uint256"},{"name":"_institutionAccount","type":"address","internalType":"address"}],"stateMutability":"nonpayable"},{"type":"function","name":"calculateRewards","inputs":[{"name":"_depositor","type":"address","internalType":"address"}],"outputs":[{"name":"","type":"uint256","internalType":"uint256"}],"stateMutability":"view"},{"type":"function","name":"claimRewards","inputs":[],"outputs":[],"stateMutability":"nonpayable"},{"type":"function","name":"deposit","inputs":[{"name":"_amount","type":"uint256","internalType":"uint256"}],"outputs":[],"stateMutability":"nonpayable"},{"type":"function","name":"distributeToInstitution","inputs":[{"name":"_amount","type":"uint256","internalType":"uint256"}],"outputs":[],"stateMutability":"nonpayable"},{"type":"function","name":"getInstitutionStatus","inputs":[],"outputs":[{"name":"totalBorrowed","type":"uint256","internalType":"uint256"},{"name":"totalRepaid","type":"uint256","internalType":"uint256"},{"name":"installmentsPaid","type":"uint256","internalType":"uint256"}],"stateMutability":"view"},{"type":"function","name":"getPoolStatus","inputs":[],"outputs":[{"name":"targetAmount","type":"uint256","internalType":"uint256"},{"name":"totalDeposits","type":"uint256","internalType":"uint256"},{"name":"availableAmount","type":"uint256","internalType":"uint256"},{"name":"totalStaked","type":"uint256","internalType":"uint256"},{"name":"totalDistributed","type":"uint256","internalType":"uint256"},{"name":"stakingRewards","type":"uint256","internalType":"uint256"}],"stateMutability":"view"},{"type":"function","name":"getUserInfo","inputs":[{"name":"_user","type":"address","internalType":"address"}],"outputs":[{"name":"depositAmount","type":"uint256","internalType":"uint256"},{"name":"rewardsEarned","type":"uint256","internalType":"uint256"},{"name":"rewardsClaimed","type":"uint256","internalType":"uint256"},{"name":"lastUpdateTime","type":"uint256","internalType":"uint256"},{"name":"rewardInActive","type":"bool","internalType":"bool"}],"stateMutability":"view"},{"type":"function","name":"initiateStakingCooldown","inputs":[{"name":"_amount","type":"uint256","internalType":"uint256"}],"outputs":[],"stateMutability":"nonpayable"},{"type":"function","name":"installmentTimestamps","inputs":[{"name":"","type":"uint256","internalType":"uint256"}],"outputs":[{"name":"","type":"uint256","internalType":"uint256"}],"stateMutability":"view"},{"type":"function","name":"institution","inputs":[],"outputs":[{"name":"totalBorrowed","type":"uint256","internalType":"uint256"},{"name":"totalRepaid","type":"uint256","internalType":"uint256"},{"name":"installmentsPaid","type":"uint256","internalType":"uint256"}],"stateMutability":"view"},{"type":"function","name":"owner","inputs":[],"outputs":[{"name":"","type":"address","internalType":"address"}],"stateMutability":"view"},{"type":"function","name":"pool","inputs":[],"outputs":[{"name":"targetAmount","type":"uint256","internalType":"uint256"},{"name":"totalDeposits","type":"uint256","internalType":"uint256"},{"name":"availableAmount","type":"uint256","internalType":"uint256"},{"name":"totalStaked","type":"uint256","internalType":"uint256"},{"name":"totalDistributed","type":"uint256","internalType":"uint256"},{"name":"stakingRewards","type":"uint256","internalType":"uint256"},{"name":"fundingEndTime","type":"uint256","internalType":"uint256"},{"name":"distributionEndTime","type":"uint256","internalType":"uint256"},{"name":"institutionAccount","type":"address","internalType":"address"},{"name":"repaymentEndTime","type":"uint256","internalType":"uint256"},{"name":"lendingRate","type":"uint256","internalType":"uint256"},{"name":"borrowingRate","type":"uint256","internalType":"uint256"},{"name":"installments","type":"uint256","internalType":"uint256"},{"name":"isActive","type":"bool","internalType":"bool"}],"stateMutability":"view"},{"type":"function","name":"renounceOwnership","inputs":[],"outputs":[],"stateMutability":"nonpayable"},{"type":"function","name":"repay","inputs":[{"name":"_amount","type":"uint256","internalType":"uint256"}],"outputs":[],"stateMutability":"nonpayable"},{"type":"function","name":"setPoolState","inputs":[{"name":"_state","type":"bool","internalType":"bool"}],"outputs":[],"stateMutability":"nonpayable"},{"type":"function","name":"stake","inputs":[{"name":"_amount","type":"uint256","internalType":"uint256"}],"outputs":[],"stateMutability":"nonpayable"},{"type":"function","name":"transferOwnership","inputs":[{"name":"newOwner","type":"address","internalType":"address"}],"outputs":[],"stateMutability":"nonpayable"},{"type":"function","name":"unstake","inputs":[{"name":"_amount","type":"uint256","internalType":"uint256"}],"outputs":[],"stateMutability":"nonpayable"},{"type":"function","name":"usde","inputs":[],"outputs":[{"name":"","type":"address","internalType":"contract ERC20"}],"stateMutability":"view"},{"type":"function","name":"userInfo","inputs":[{"name":"","type":"address","internalType":"address"}],"outputs":[{"name":"depositAmount","type":"uint256","internalType":"uint256"},{"name":"rewardsEarned","type":"uint256","internalType":"uint256"},{"name":"rewardsClaimed","type":"uint256","internalType":"uint256"},{"name":"lastUpdateTime","type":"uint256","internalType":"uint256"},{"name":"rewardInActive","type":"bool","internalType":"bool"}],"stateMutability":"view"},{"type":"event","name":"Deposited","inputs":[{"name":"depositor","type":"address","indexed":true,"internalType":"address"},{"name":"amount","type":"uint256","indexed":false,"internalType":"uint256"}],"anonymous":false},{"type":"event","name":"DistributedToInstitution","inputs":[{"name":"amount","type":"uint256","indexed":false,"internalType":"uint256"}],"anonymous":false},{"type":"event","name":"InstallmentDistributed","inputs":[{"name":"installmentNumber","type":"uint256","indexed":false,"internalType":"uint256"},{"name":"amount","type":"uint256","indexed":false,"internalType":"uint256"},{"name":"timestamp","type":"uint256","indexed":false,"internalType":"uint256"}],"anonymous":false},{"type":"event","name":"OwnershipTransferred","inputs":[{"name":"previousOwner","type":"address","indexed":true,"internalType":"address"},{"name":"newOwner","type":"address","indexed":true,"internalType":"address"}],"anonymous":false},{"type":"event","name":"Repaid","inputs":[{"name":"amount","type":"uint256","indexed":false,"internalType":"uint256"}],"anonymous":false},{"type":"event","name":"RepaymentReceived","inputs":[{"name":"repaymentNumber","type":"uint256","indexed":false,"internalType":"uint256"},{"name":"amount","type":"uint256","indexed":false,"internalType":"uint256"},{"name":"timestamp","type":"uint256","indexed":false,"internalType":"uint256"}],"anonymous":false},{"type":"event","name":"RewardsClaimed","inputs":[{"name":"depositor","type":"address","indexed":true,"internalType":"address"},{"name":"amount","type":"uint256","indexed":false,"internalType":"uint256"}],"anonymous":false},{"type":"event","name":"Staked","inputs":[{"name":"amount","type":"uint256","indexed":false,"internalType":"uint256"},{"name":"newTotalStaked","type":"uint256","indexed":false,"internalType":"uint256"},{"name":"newAvailableAmount","type":"uint256","indexed":false,"internalType":"uint256"}],"anonymous":false},{"type":"event","name":"StakingCooldownInitiated","inputs":[{"name":"timestamp","type":"uint256","indexed":false,"internalType":"uint256"}],"anonymous":false},{"type":"event","name":"TargetReached","inputs":[],"anonymous":false},{"type":"event","name":"Unstaked","inputs":[{"name":"amount","type":"uint256","indexed":false,"internalType":"uint256"},{"name":"newTotalStaked","type":"uint256","indexed":false,"internalType":"uint256"},{"name":"newAvailableAmount","type":"uint256","indexed":false,"internalType":"uint256"}],"anonymous":false},{"type":"error","name":"OwnableInvalidOwner","inputs":[{"name":"owner","type":"address","internalType":"address"}]},{"type":"error","name":"OwnableUnauthorizedAccount","inputs":[{"name":"account","type":"address","internalType":"address"}]},{"type":"error","name":"ReentrancyGuardReentrantCall","inputs":[]}],"bytecode":{"object":"0x60806040523480156200001157600080fd5b506040516200175a3803806200175a833981016040819052620000349162000171565b600160005533806200006057604051631e4fbdf760e01b81526000600482015260240160405180910390fd5b6200006b8162000102565b50600280546001600160a01b0319166001600160a01b038a161790556003879055620000988642620001e3565b6009819055620000aa908690620001e3565b600a819055620000bc908590620001e3565b600c55600d92909255600e556010805460ff19166001179055600b80546001600160a01b039092166001600160a01b0319909216919091179055506200020b9350505050565b600180546001600160a01b038381166001600160a01b0319831681179093556040519116919082907f8be0079c531659141344cd1fd0a4f28419497f9722a3daafe3b4186f6b6457e090600090a35050565b80516001600160a01b03811681146200016c57600080fd5b919050565b600080600080600080600080610100898b0312156200018f57600080fd5b6200019a8962000154565b97506020890151965060408901519550606089015194506080890151935060a0890151925060c08901519150620001d460e08a0162000154565b90509295985092959890939650565b808201808211156200020557634e487b7160e01b600052601160045260246000fd5b92915050565b61153f806200021b6000396000f3fe608060405234801561001057600080fd5b506004361061012c5760003560e01c806364ab8675116100ad578063a694fc3a11610071578063a694fc3a1461040d578063b6b55f2514610420578063d1384eb614610433578063f2fde38b14610445578063f380ef3d1461045857600080fd5b806364ab867514610374578063715018a6146103955780637f79496c1461039d578063889c9058146103dc5780638da5cb5b146103fc57600080fd5b8063371fd8e6116100f4578063371fd8e6146102b0578063372500ab146102c35780633d2553e0146102cb5780635c1eba82146102f05780636386c1c71461030357600080fd5b80630fd761e01461013157806316f0115b146101615780631959a0021461021e5780632e17de781461028857806336482e6a1461029d575b600080fd5b600254610144906001600160a01b031681565b6040516001600160a01b0390911681526020015b60405180910390f35b600354600454600554600654600754600854600954600a54600b54600c54600d54600e54600f546010546101ab9d9c9b9a99989796956001600160a01b0316949392919060ff168e565b604080519e8f5260208f019d909d529b8d019a909a5260608c019890985260808b019690965260a08a019490945260c089019290925260e08801526001600160a01b031661010087015261012086015261014085015261016084015261018083015215156101a08201526101c001610158565b61025e61022c3660046113ea565b601660205260009081526040902080546001820154600283015460038401546004909401549293919290919060ff1685565b6040805195865260208601949094529284019190915260608301521515608082015260a001610158565b61029b61029636600461141a565b61046b565b005b61029b6102ab366004611441565b61063f565b61029b6102be36600461141a565b61065a565b61029b610899565b6011546012546013545b60408051938452602084019290925290820152606001610158565b61029b6102fe36600461141a565b610abb565b61025e6103113660046113ea565b6001600160a01b0316600090815260166020908152604091829020825160a08101845281548082526001830154938201849052600283015494820185905260038301546060830181905260049093015460ff161515608090920182905294929392565b6103876103823660046113ea565b610b59565b604051908152602001610158565b61029b610b94565b600354600454600554600654600754600854604080519687526020870195909552938501929092526060840152608083015260a082015260c001610158565b6103876103ea36600461141a565b60176020526000908152604090205481565b6001546001600160a01b0316610144565b61029b61041b36600461141a565b610ba6565b61029b61042e36600461141a565b610d2d565b6011546012546013546102d592919083565b61029b6104533660046113ea565b610f79565b61029b61046636600461141a565b610fb4565b610473611238565b6006548111156104ca5760405162461bcd60e51b815260206004820152601a60248201527f496e73756666696369656e74207374616b656420616d6f756e7400000000000060448201526064015b60405180910390fd5b60405163f2888dbb60e01b8152306004820152731b6877c6dac4b6de4c5817925dc40e2bfdafc01b9063f2888dbb90602401600060405180830381600087803b15801561051657600080fd5b505af115801561052a573d6000803e3d6000fd5b50505050806003800160008282546105429190611474565b90915550506005805482919060009061055c908490611487565b90915550506002546001600160a01b031663a9059cbb6105846001546001600160a01b031690565b6040516001600160e01b031960e084901b1681526001600160a01b039091166004820152602481018490526044016020604051808303816000875af11580156105d1573d6000803e3d6000fd5b505050506040513d601f19601f820116820180604052508101906105f5919061149a565b506006546005546040805184815260208101939093528201527f6d53ab8a75d9106d01c9ba0ac2e389ffb405989741a1a51c3791492b219fc80d906060015b60405180910390a150565b610647611238565b6010805460ff1916911515919091179055565b610662611265565b600c544211156106ad5760405162461bcd60e51b815260206004820152601660248201527514995c185e5b595b9d081c195c9a5bd908195b99195960521b60448201526064016104c1565b600a5442116106fe5760405162461bcd60e51b815260206004820152601c60248201527f52657061796d656e7420706572696f64206e6f7420737461727465640000000060448201526064016104c1565b6000811161074e5760405162461bcd60e51b815260206004820152601d60248201527f416d6f756e74206d7573742062652067726561746572207468616e203000000060448201526064016104c1565b60135460128054839190600090610766908490611487565b909155505060008181526015602052604090208290556002546001600160a01b03166323b872dd336107a06001546001600160a01b031690565b6040516001600160e01b031960e085901b1681526001600160a01b03928316600482015291166024820152604481018590526064016020604051808303816000875af11580156107f4573d6000803e3d6000fd5b505050506040513d601f19601f82011682018060405250810190610818919061149a565b506040805182815260208101849052428183015290517faf28ef548a3e357577842b9bd2e33678ce378c87837d3df6cb9592975552624d9181900360600190a16040518281527f33a382daad6aace935340a474d09fec82af4bec7e2b69518d283231b03a65f249060200160405180910390a1506108966001600055565b50565b6108a1611265565b336000818152601660205260408120916108ba90610b59565b9050600081116109025760405162461bcd60e51b81526020600482015260136024820152724e6f207265776172647320746f20636c61696d60681b60448201526064016104c1565b6005548111156109665760405162461bcd60e51b815260206004820152602960248201527f496e73756666696369656e7420617661696c61626c6520616d6f756e7420666f60448201526872207265776172647360b81b60648201526084016104c1565b600482015460ff16156109b45760405162461bcd60e51b815260206004820152601660248201527514995dd85c9908185b1c9958591e4818db185a5b595960521b60448201526064016104c1565b808260010160008282546109c89190611487565b92505081905550808260020160008282546109e39190611487565b9091555050600580548291906000906109fd908490611474565b909155505060025460405163a9059cbb60e01b8152336004820152602481018390526001600160a01b039091169063a9059cbb906044016020604051808303816000875af1158015610a53573d6000803e3d6000fd5b505050506040513d601f19601f82011682018060405250810190610a77919061149a565b5060405181815233907ffc30cddea38e2bf4d6ea7d3f9ed3b6ad7f176419f4963bd81318067a4aee73fe9060200160405180910390a25050610ab96001600055565b565b610ac3611238565b60405163cdac52ed60e01b815260048101829052731b6877c6dac4b6de4c5817925dc40e2bfdafc01b9063cdac52ed90602401600060405180830381600087803b158015610b1057600080fd5b505af1158015610b24573d6000803e3d6000fd5b505050507ffff1b6f86831aa832893cf961a1a87579bc6d7e310f6fdd4dc93b7c0c15962054260405161063491815260200190565b600d546001600160a01b0382166000908152601660205260408120549091606491610b8491906114b7565b610b8e91906114ce565b92915050565b610b9c611238565b610ab9600061128f565b610bae611238565b60105460ff16610bf25760405162461bcd60e51b815260206004820152600f60248201526e506f6f6c206e6f742061637469766560881b60448201526064016104c1565b600554811115610c445760405162461bcd60e51b815260206004820152601d60248201527f496e73756666696369656e7420617661696c61626c6520616d6f756e7400000060448201526064016104c1565b610c4d816112e1565b604051636e553f6560e01b815260048101829052306024820152731b6877c6dac4b6de4c5817925dc40e2bfdafc01b90636e553f6590604401600060405180830381600087803b158015610ca057600080fd5b505af1158015610cb4573d6000803e3d6000fd5b5050505080600380016000828254610ccc9190611487565b909155505060058054829190600090610ce6908490611474565b90915550506006546005546040805184815260208101939093528201527fc8acfabcfb3af3df23b7b8a1aa1371d042bee71e137eeedc881ffa8f3c44626190606001610634565b610d35611265565b600954421115610d7e5760405162461bcd60e51b8152602060048201526014602482015273119d5b991a5b99c81c195c9a5bd908195b99195960621b60448201526064016104c1565b60008111610dce5760405162461bcd60e51b815260206004820152601d60248201527f416d6f756e74206d7573742062652067726561746572207468616e203000000060448201526064016104c1565b600354600454610ddf908390611487565b1115610e265760405162461bcd60e51b815260206004820152601660248201527515185c99d95d08185b5bdd5b9d08195e18d95959195960521b60448201526064016104c1565b336000908152601660205260408120805490918391839190610e49908490611487565b909155505042600382015560048054839190600090610e69908490611487565b909155505060058054839190600090610e83908490611487565b90915550506002546040516323b872dd60e01b8152336004820152306024820152604481018490526001600160a01b03909116906323b872dd906064016020604051808303816000875af1158015610edf573d6000803e3d6000fd5b505050506040513d601f19601f82011682018060405250810190610f03919061149a565b5060035460045403610f39576040517f8735407ca1ae8b74dd5770f504b2e8150f9a70d8eebb2ead3961051c814bda6c90600090a15b60405182815233907f2da466a7b24304f47e87fa2e1e5a81b9831ce54fec19055ce277ca2f39ba42c49060200160405180910390a2506108966001600055565b610f81611238565b6001600160a01b038116610fab57604051631e4fbdf760e01b8152600060048201526024016104c1565b6108968161128f565b610fbc611238565b600a5442111561100e5760405162461bcd60e51b815260206004820152601960248201527f446973747269627574696f6e20706572696f6420656e6465640000000000000060448201526064016104c1565b600954421161105f5760405162461bcd60e51b815260206004820152601f60248201527f446973747269627574696f6e20706572696f64206e6f7420737461727465640060448201526064016104c1565b6005548111156110b15760405162461bcd60e51b815260206004820152601d60248201527f496e73756666696369656e7420617661696c61626c6520616d6f756e7400000060448201526064016104c1565b6013546000906110c2906001611487565b905081600360020160008282546110d99190611474565b9091555050600780548391906000906110f3908490611487565b90915550506011805483919060009061110d908490611487565b909155505060008181526014602052604081208390556013805491611131836114f0565b909155505060008181526017602052604090819020429055600254600b54915163a9059cbb60e01b81526001600160a01b0392831660048201526024810185905291169063a9059cbb906044016020604051808303816000875af115801561119d573d6000803e3d6000fd5b505050506040513d601f19601f820116820180604052508101906111c1919061149a565b506040805182815260208101849052428183015290517f01aa230ceb5f3b2a0e988ceb64a12a850ed64108082b70ba48f84fb382c66aed9181900360600190a16040518281527f45d899c241e23c24cd43b4c5e4e4b60fd5c13fbfd5a72b462507474a8ac26fc09060200160405180910390a15050565b6001546001600160a01b03163314610ab95760405163118cdaa760e01b81523360048201526024016104c1565b60026000540361128857604051633ee5aeb560e01b815260040160405180910390fd5b6002600055565b600180546001600160a01b038381166001600160a01b0319831681179093556040519116919082907f8be0079c531659141344cd1fd0a4f28419497f9722a3daafe3b4186f6b6457e090600090a35050565b6002546040516323b872dd60e01b8152336004820152306024820152604481018390526001600160a01b03909116906323b872dd906064016020604051808303816000875af1158015611338573d6000803e3d6000fd5b505050506040513d601f19601f8201168201806040525081019061135c919061149a565b5060025460405163095ea7b360e01b8152731b6877c6dac4b6de4c5817925dc40e2bfdafc01b6004820152602481018390526001600160a01b039091169063095ea7b3906044016020604051808303816000875af11580156113c2573d6000803e3d6000fd5b505050506040513d601f19601f820116820180604052508101906113e6919061149a565b5050565b6000602082840312156113fc57600080fd5b81356001600160a01b038116811461141357600080fd5b9392505050565b60006020828403121561142c57600080fd5b5035919050565b801515811461089657600080fd5b60006020828403121561145357600080fd5b813561141381611433565b634e487b7160e01b600052601160045260246000fd5b81810381811115610b8e57610b8e61145e565b80820180821115610b8e57610b8e61145e565b6000602082840312156114ac57600080fd5b815161141381611433565b8082028115828204841417610b8e57610b8e61145e565b6000826114eb57634e487b7160e01b600052601260045260246000fd5b500490565b6000600182016115025761150261145e565b506001019056fea2646970667358221220ee5e9b44baa72428afc56d4755f443e8fe2673e026cc4d6d37892ad34b99589a64736f6c63430008160033","linkReferences":{}},"methodIdentifiers":{"calculateRewards(address)":"64ab8675","claimRewards()":"372500ab","deposit(uint256)":"b6b55f25","distributeToInstitution(uint256)":"f380ef3d","getInstitutionStatus()":"3d2553e0","getPoolStatus()":"7f79496c","getUserInfo(address)":"6386c1c7","initiateStakingCooldown(uint256)":"5c1eba82","installmentTimestamps(uint256)":"889c9058","institution()":"d1384eb6","owner()":"8da5cb5b","pool()":"16f0115b","renounceOwnership()":"715018a6","repay(uint256)":"371fd8e6","setPoolState(bool)":"36482e6a","stake(uint256)":"a694fc3a","transferOwnership(address)":"f2fde38b","unstake(uint256)":"2e17de78","usde()":"0fd761e0","userInfo(address)":"1959a002"},"id":1}